:100000000C942A000C94FC020C943C000C943C00D0
:100010000C943C000C943C000C943C000C943C0070
:100020000C943C000C943C000C943C000C943C0060
:100030000C943C000C943C000C943C000C943C0050
:100040000C943C000C943C000C943C000C943C0040
:100050000C943C0011241FBECFE5D8E0DEBFCDBF1D
:1000600020E0A0E6B0E001C01D92A636B207E1F79D
:100070000E942F030C9433070C94000060E080E092
:100080000E94230361E080E00E94230362E080E09D
:100090000E94230360E081E00E94230361E081E08D
:1000A0000E94230362E081E00E94230362E083E078
:1000B0000E9410030E9417030E941D030895CF930E
:1000C000DF93109261001092600084EF91E00E9433
:1000D0001A03409162005091630062E083E00E9445
:1000E0001403E0916200F09163008081811169C185
:1000F00080916400909165008230910509F493C06D
:100100001CF499232CF459C1049709F4CCC055C1AF
:1001100060E081E00E942B0361E081E00E942B03FC
:1001200062E081E00E94270360E080E00E942703F4
:1001300061E080E00E942B0362E080E00E942B03DC
:10014000C0E0D0E025C061E080E00E94270361E0CC
:1001500081E00E94270386E891E00E941A0361E093
:1001600080E00E942B0361E081E00E942B038EEB74
:1001700090E00E941A0361E080E00E94270361E0A2
:1001800081E00E94270386E891E00E941A032196ED
:10019000C530D105C4F262E081E00E942B0360E02B
:1001A00080E00E942B0360E081E00E94270361E071
:1001B00081E00E942B0361E080E00E942B0362E05B
:1001C00080E00E94270388E893E10E941A03C0E0C0
:1001D000D0E025C061E080E00E94270361E081E07B
:1001E0000E94270386E891E00E941A0361E080E004
:1001F0000E942B0361E081E00E942B038EEB90E0D4
:100200000E941A0361E080E00E94270361E081E020
:100210000E94270386E891E00E941A032196C530C8
:10022000D105C4F2CAC060E081E00E94270361E00A
:1002300081E00E942B0361E080E00E942B0362E0DA
:1002400080E00E94270388E893E10E941A03C0E03F
:10025000D0E025C061E080E00E94270361E081E0FA
:100260000E94270386E891E00E941A0361E080E083
:100270000E942B0361E081E00E942B038EEB90E053
:100280000E941A0361E080E00E94270361E081E0A0
:100290000E94270386E891E00E941A032196C53048
:1002A000D105C4F28AC060E081E00E94270361E0CA
:1002B00081E00E942B0362E081E00E942B0360E05A
:1002C00080E00E942B0361E080E00E942B0362E04B
:1002D00080E00E942703C0E0D0E025C061E080E01C
:1002E0000E94270361E081E00E94270386E891E0F5
:1002F0000E941A0361E080E00E942B0361E081E02C
:100300000E942B038EEB90E00E941A0361E080E0D4
:100310000E94270361E081E00E94270386E891E0C4
:100320000E941A032196C530D105C4F262E081E033
:100330000E942B0360E080E00E942B0360E081E0DC
:100340000E94270361E081E00E942B0361E080E0CE
:100350000E942B0362E080E00E94270388E893E17B
:100360000E941A03C0E0D0E025C061E080E00E9456
:10037000270361E081E00E94270386E891E00E9464
:100380001A0361E080E00E942B0361E081E00E949B
:100390002B038EEB90E00E941A0361E080E00E9444
:1003A000270361E081E00E94270386E891E00E9434
:1003B0001A032196C530D105C4F210926100109243
:1003C0006000DF91CF910895CF93DF93809160001B
:1003D00090916100892B71F5109265001092640074
:1003E00060E081E00E942B0361E081E00E942B032A
:1003F00060E080E00E94270361E080E00E942B0320
:1004000062E080E00E942B03C0E0D0E00FC080914A
:10041000600090916100892B31F484E690E00E94A5
:100420001A03219603C00E945F00E3C0C233D105C6
:1004300074F303C00E945F00DCC080916000909163
:100440006100892B09F048C081E090E0909365003D
:1004500080936400C0E0D0E03BC061E080E00E9497
:1004600027038091600090916100892B99F486E8C0
:1004700091E00E941A0361E080E00E942B0361E09A
:1004800081E00E942B038091600090916100892B94
:1004900021F012C00E945F00ACC08EEB90E00E9481
:1004A0001A0361E080E00E94270380916000909130
:1004B0006100892B21F009C00E945F009AC086E884
:1004C00091E00E941A03219603C00E945F0091C030
:1004D000C530D10514F203C00E945F008AC080912C
:1004E000600090916100892B81F582E090E090930B
:1004F00065008093640061E081E00E942B0362E06C
:1005000081E00E942B0360E080E00E942B0361E009
:1005100080E00E942B0362E080E00E942703C0E09D
:10052000D0E00FC08091600090916100892B31F480
:1005300084E690E00E941A03219603C00E945F00A7
:1005400058C0C233D10574F303C00E945F0051C08C
:100550008091600090916100892B09F048C084E08F
:1005600090E09093650080936400C0E0D0E03BC0D1
:1005700061E080E00E94270380916000909161001B
:10058000892B99F486E891E00E941A0361E080E0EB
:100590000E942B0361E081E00E942B0380916000A8
:1005A00090916100892B21F012C00E945F0021C050
:1005B0008EEB90E00E941A0361E080E00E94270326
:1005C0008091600090916100892B21F009C00E9408
:1005D0005F000FC086E891E00E941A03219603C0D5
:1005E0000E945F0006C0C530D10514F202C00E940F
:1005F0005F00DF91CF9108951F920F920FB60F9277
:1006000011248F939F9381E090E0909361008093F9
:1006100060009F918F910F900FBE0F901F901895C3
:1006200040E00E94340308950E94220408950E942D
:100630008E0408950E949004089578940E94830483
:100640000E948A04089541E00E943403089541E025
:100650000E94AB03089540E00E94AB0308950E94FE
:100660003E000E94E401FDCF813019F130F082306C
:10067000E1F1833009F454C0089541110CC02AB34C
:1006800081E090E002C0880F991F6A95E2F780959B
:1006900082238ABB0895413009F05CC02AB381E00F
:1006A00090E002C0880F991F6A95E2F7822B8ABBFF
:1006B000089541110CC027B381E090E002C0880F7B
:1006C000991F6A95E2F78095822387BB0895413090
:1006D00009F040C027B381E090E002C0880F991F65
:1006E0006A95E2F7822B87BB089541110CC024B3B1
:1006F00081E090E002C0880F991F6A95E2F780952B
:10070000822384BB0895413029F524B381E090E031
:1007100002C0880F991F6A95E2F7822B84BB089567
:1007200041110CC021B381E090E002C0880F991FF5
:100730006A95E2F78095822381BB0895413051F498
:1007400021B381E090E002C0880F991F6A95E2F71B
:10075000822B81BB0895813019F130F08230E1F1B4
:10076000833009F454C0089541110CC02BB381E0CB
:1007700090E002C0880F991F6A95E2F78095822366
:100780008BBB0895413009F05CC02BB381E090E051
:1007900002C0880F991F6A95E2F7822B8BBB0895E0
:1007A00041110CC028B381E090E002C0880F991F6E
:1007B0006A95E2F78095822388BB0895413009F05D
:1007C00040C028B381E090E002C0880F991F6A956D
:1007D000E2F7822B88BB089541110CC025B381E05C
:1007E00090E002C0880F991F6A95E2F780958223F6
:1007F00085BB0895413029F525B381E090E002C022
:10080000880F991F6A95E2F7822B85BB08954111E5
:100810000CC022B381E090E002C0880F991F6A9556
:10082000E2F78095822382BB0895413051F422B3D0
:1008300081E090E002C0880F991F6A95E2F7822B51
:1008400082BB08958130E9F030F0823081F183304D
:1008500009F443C0089579B381E090E09C01062E2D
:1008600002C0220F331F0A94E2F7872F90E0822301
:10087000932302C0959587956A95E2F7FA018083E4
:10088000089576B381E090E09C01062E02C0220F0D
:10089000331F0A94E2F7872F90E08223932302C04C
:1008A000959587956A95E2F7FA018083089573B369
:1008B00081E090E09C01062E02C0220F331F0A94B3
:1008C000E2F7872F90E08223932302C095958795C6
:1008D0006A95E2F7FA018083089570B381E090E0B1
:1008E0009C01062E02C0220F331F0A94E2F7872FC5
:1008F00090E08223932302C0959587956A95E2F74D
:10090000FA018083089585B7816085BF85B78260CD
:1009100085BF08958BB780648BBF089513BE08957B
:100920008F929F92AF92BF92CF92DF92EF92FF92FF
:10093000CF93DF93EC01BC0180E090E00E94400681
:100940006B017C012FE632E143E853E40E949A05F3
:1009500088239CF4A70196016FE672E183E893E493
:100960000E9416052FE632E143E85FE30E949F05EF
:100970000E941106C1E0D0E035C0C630D14079F107
:100980002FE632E143E853E4C701B6010E949F0518
:100990000E9483050E9411064B015C01EB012FE6CA
:1009A00032E143E85FE3C701B6010E949F056B0196
:1009B0007C01B40180E090E00E9440069B01AC0104
:1009C000C701B6010E949F059B01AC0160E070E089
:1009D00080E893E40E9416050E94110603C060E0BF
:1009E000C1E0D0E062BF83B7816083BF83B78D7FF2
:1009F00083BF83B7846083BF20E030E008C008B6BF
:100A000000FEFDCF88B7816088BF2F5F3F4F2C1756
:100A10003D07A8F313BEDF91CF91FF90EF90DF90D9
:100A2000CF90BF90AF909F908F9008955058BB2764
:100A3000AA270E942E050C94E1060E94D30638F0E6
:100A40000E94DA0620F039F49F3F19F426F40C9442
:100A5000D0060EF4E095E7FB0C94A106E92F0E9466
:100A6000F20658F3BA17620773078407950720F058
:100A700079F4A6F50C942C070EF4E0950B2EBA2F02
:100A8000A02D0B01B90190010C01CA01A001112494
:100A9000FF27591B99F0593F50F4503E68F11A1640
:100AA000F040A22F232F342F4427585FF3CF4695D1
:100AB00037952795A795F0405395C9F77EF41F16F3
:100AC000BA0B620B730B840BBAF09150A1F0FF0FBD
:100AD000BB1F661F771F881FC2F70EC0BA0F621FA9
:100AE000731F841F48F4879577956795B795F79599
:100AF0009E3F08F0B0CF9395880F08F09927EE0F2E
:100B00009795879508950E94140790F09F3748F4B1
:100B1000911116F40C942D0760E070E080E89FE3DB
:100B2000089526F01B16611D711D811D0C94A706EA
:100B30000C94C2060E947D0608F481E008950E948C
:100B4000B3050C94E1060E94DA0658F00E94D30621
:100B500040F029F45F3F29F00C94A10651110C9448
:100B60002D070C94D0060E94F20668F39923B1F386
:100B7000552391F3951B550BBB27AA2762177307C3
:100B8000840738F09F5F5F4F220F331F441FAA1F57
:100B9000A9F335D00E2E3AF0E0E832D09150504013
:100BA000E695001CCAF72BD0FE2F29D0660F771FC1
:100BB000881FBB1F261737074807AB07B0E809F0A7
:100BC000BB0B802DBF01FF2793585F4F3AF09E3F2C
:100BD000510578F00C94A1060C942D075F3FE4F3C7
:100BE000983ED4F3869577956795B795F7959F5F6F
:100BF000C9F7880F911D9695879597F90895E1E0BB
:100C0000660F771F881FBB1F621773078407BA0719
:100C100020F0621B730B840BBA0BEE1F88F7E09574
:100C200008950E94FA0688F09F5798F0B92F9927E7
:100C3000B751B0F0E1F0660F771F881F991F1AF0C7
:100C4000BA95C9F714C0B13091F00E942C07B1E0F9
:100C500008950C942C07672F782F8827B85F39F0F8
:100C6000B93FCCF3869577956795B395D9F73EF460
:100C700090958095709561957F4F8F4F9F4F089508
:100C8000E89409C097FB3EF4909580957095619526
:100C90007F4F8F4F9F4F9923A9F0F92F96E9BB27DC
:100CA0009395F695879577956795B795F111F8CF58
:100CB000FAF4BB0F11F460FF1BC06F5F7F4F8F4FC3
:100CC0009F4F16C0882311F096E911C0772321F0B9
:100CD0009EE8872F762F05C0662371F096E8862F51
:100CE00070E060E02AF09A95660F771F881FDAF7A8
:100CF000880F9695879597F90895990F0008550FD5
:100D0000AA0BE0E8FEEF16161706E807F907C0F091
:100D100012161306E407F50798F0621B730B840B99
:100D2000950B39F40A2661F0232B242B252B21F473
:100D300008950A2609F4A140A6958FEF811D811D13
:100D4000089597F99F6780E870E060E00895882330
:100D500071F4772321F09850872B762F07C06623F4
:100D600011F499270DC09051862B70E060E02AF0B5
:100D70009A95660F771F881FDAF7880F96958795E3
:100D800097F908959F3F31F0915020F4879577951A
:100D90006795B795880F911D9695879597F9089552
:100DA0009FEF80EC089500240A9416161706180683
:100DB0000906089500240A9412161306140605065F
:100DC0000895092E0394000C11F4882352F0BB0FF0
:100DD00040F4BF2B11F460FF04C06F5F7F4F8F4F53
:100DE0009F4F089557FD9058440F551F59F05F3F8E
:100DF00071F04795880F97FB991F61F09F3F79F03D
:100E000087950895121613061406551FF2CF4695BE
:100E1000F1DF08C0161617061806991FF1CF869540
:100E200071056105089408950E94FA06A0F0BEE7D6
:100E3000B91788F4BB279F3860F41616B11D672FC9
:100E4000782F8827985FF7CF869577956795B11D9E
:100E500093959639C8F30895E894BB2766277727BA
:0A0E6000CB0197F90895F894FFCF35
:00000001FF
